{
  "_format": "hh-sol-artifact-1",
  "contractName": "AnkrAvalancheNFT",
  "sourceName": "contracts/AnkrAvalancheNFT.sol",
  "abi": [
    {
      "inputs": [],
      "stateMutability": "nonpayable",
      "type": "constructor"
    },
    {
      "anonymous": false,
      "inputs": [
        {
          "indexed": true,
          "internalType": "address",
          "name": "owner",
          "type": "address"
        },
        {
          "indexed": true,
          "internalType": "address",
          "name": "approved",
          "type": "address"
        },
        {
          "indexed": true,
          "internalType": "uint256",
          "name": "tokenId",
          "type": "uint256"
        }
      ],
      "name": "Approval",
      "type": "event"
    },
    {
      "anonymous": false,
      "inputs": [
        {
          "indexed": true,
          "internalType": "address",
          "name": "owner",
          "type": "address"
        },
        {
          "indexed": true,
          "internalType": "address",
          "name": "operator",
          "type": "address"
        },
        {
          "indexed": false,
          "internalType": "bool",
          "name": "approved",
          "type": "bool"
        }
      ],
      "name": "ApprovalForAll",
      "type": "event"
    },
    {
      "anonymous": false,
      "inputs": [
        {
          "indexed": true,
          "internalType": "address",
          "name": "previousOwner",
          "type": "address"
        },
        {
          "indexed": true,
          "internalType": "address",
          "name": "newOwner",
          "type": "address"
        }
      ],
      "name": "OwnershipTransferred",
      "type": "event"
    },
    {
      "anonymous": false,
      "inputs": [
        {
          "indexed": true,
          "internalType": "address",
          "name": "from",
          "type": "address"
        },
        {
          "indexed": true,
          "internalType": "address",
          "name": "to",
          "type": "address"
        },
        {
          "indexed": true,
          "internalType": "uint256",
          "name": "tokenId",
          "type": "uint256"
        }
      ],
      "name": "Transfer",
      "type": "event"
    },
    {
      "inputs": [
        {
          "internalType": "address",
          "name": "to",
          "type": "address"
        },
        {
          "internalType": "uint256",
          "name": "tokenId",
          "type": "uint256"
        }
      ],
      "name": "approve",
      "outputs": [],
      "stateMutability": "nonpayable",
      "type": "function"
    },
    {
      "inputs": [
        {
          "internalType": "address",
          "name": "owner",
          "type": "address"
        }
      ],
      "name": "balanceOf",
      "outputs": [
        {
          "internalType": "uint256",
          "name": "",
          "type": "uint256"
        }
      ],
      "stateMutability": "view",
      "type": "function"
    },
    {
      "inputs": [
        {
          "internalType": "uint256",
          "name": "tokenId",
          "type": "uint256"
        }
      ],
      "name": "getApproved",
      "outputs": [
        {
          "internalType": "address",
          "name": "",
          "type": "address"
        }
      ],
      "stateMutability": "view",
      "type": "function"
    },
    {
      "inputs": [
        {
          "internalType": "address",
          "name": "owner",
          "type": "address"
        },
        {
          "internalType": "address",
          "name": "operator",
          "type": "address"
        }
      ],
      "name": "isApprovedForAll",
      "outputs": [
        {
          "internalType": "bool",
          "name": "",
          "type": "bool"
        }
      ],
      "stateMutability": "view",
      "type": "function"
    },
    {
      "inputs": [
        {
          "internalType": "address",
          "name": "recipient",
          "type": "address"
        },
        {
          "internalType": "string",
          "name": "tokenURI",
          "type": "string"
        }
      ],
      "name": "mint",
      "outputs": [
        {
          "internalType": "uint256",
          "name": "",
          "type": "uint256"
        }
      ],
      "stateMutability": "nonpayable",
      "type": "function"
    },
    {
      "inputs": [],
      "name": "name",
      "outputs": [
        {
          "internalType": "string",
          "name": "",
          "type": "string"
        }
      ],
      "stateMutability": "view",
      "type": "function"
    },
    {
      "inputs": [],
      "name": "owner",
      "outputs": [
        {
          "internalType": "address",
          "name": "",
          "type": "address"
        }
      ],
      "stateMutability": "view",
      "type": "function"
    },
    {
      "inputs": [
        {
          "internalType": "uint256",
          "name": "tokenId",
          "type": "uint256"
        }
      ],
      "name": "ownerOf",
      "outputs": [
        {
          "internalType": "address",
          "name": "",
          "type": "address"
        }
      ],
      "stateMutability": "view",
      "type": "function"
    },
    {
      "inputs": [],
      "name": "renounceOwnership",
      "outputs": [],
      "stateMutability": "nonpayable",
      "type": "function"
    },
    {
      "inputs": [
        {
          "internalType": "address",
          "name": "from",
          "type": "address"
        },
        {
          "internalType": "address",
          "name": "to",
          "type": "address"
        },
        {
          "internalType": "uint256",
          "name": "tokenId",
          "type": "uint256"
        }
      ],
      "name": "safeTransferFrom",
      "outputs": [],
      "stateMutability": "nonpayable",
      "type": "function"
    },
    {
      "inputs": [
        {
          "internalType": "address",
          "name": "from",
          "type": "address"
        },
        {
          "internalType": "address",
          "name": "to",
          "type": "address"
        },
        {
          "internalType": "uint256",
          "name": "tokenId",
          "type": "uint256"
        },
        {
          "internalType": "bytes",
          "name": "_data",
          "type": "bytes"
        }
      ],
      "name": "safeTransferFrom",
      "outputs": [],
      "stateMutability": "nonpayable",
      "type": "function"
    },
    {
      "inputs": [
        {
          "internalType": "address",
          "name": "operator",
          "type": "address"
        },
        {
          "internalType": "bool",
          "name": "approved",
          "type": "bool"
        }
      ],
      "name": "setApprovalForAll",
      "outputs": [],
      "stateMutability": "nonpayable",
      "type": "function"
    },
    {
      "inputs": [
        {
          "internalType": "bytes4",
          "name": "interfaceId",
          "type": "bytes4"
        }
      ],
      "name": "supportsInterface",
      "outputs": [
        {
          "internalType": "bool",
          "name": "",
          "type": "bool"
        }
      ],
      "stateMutability": "view",
      "type": "function"
    },
    {
      "inputs": [],
      "name": "symbol",
      "outputs": [
        {
          "internalType": "string",
          "name": "",
          "type": "string"
        }
      ],
      "stateMutability": "view",
      "type": "function"
    },
    {
      "inputs": [
        {
          "internalType": "uint256",
          "name": "tokenId",
          "type": "uint256"
        }
      ],
      "name": "tokenURI",
      "outputs": [
        {
          "internalType": "string",
          "name": "",
          "type": "string"
        }
      ],
      "stateMutability": "view",
      "type": "function"
    },
    {
      "inputs": [
        {
          "internalType": "address",
          "name": "from",
          "type": "address"
        },
        {
          "internalType": "address",
          "name": "to",
          "type": "address"
        },
        {
          "internalType": "uint256",
          "name": "tokenId",
          "type": "uint256"
        }
      ],
      "name": "transferFrom",
      "outputs": [],
      "stateMutability": "nonpayable",
      "type": "function"
    },
    {
      "inputs": [
        {
          "internalType": "address",
          "name": "newOwner",
          "type": "address"
        }
      ],
      "name": "transferOwnership",
      "outputs": [],
      "stateMutability": "nonpayable",
      "type": "function"
    }
  ],
  "bytecode": "0x60806040523480156200001157600080fd5b506040518060400160405280600b81526020017f416e6b72417661784e46540000000000000000000000000000000000000000008152506040518060400160405280600881526020017f414e4b5241564158000000000000000000000000000000000000000000000000815250816000908051906020019062000096929190620001a6565b508060019080519060200190620000af929190620001a6565b505050620000d2620000c6620000d860201b60201c565b620000e060201b60201c565b620002bb565b600033905090565b6000600760009054906101000a900473ffffffffffffffffffffffffffffffffffffffff16905081600760006101000a81548173ffffffffffffffffffffffffffffffffffffffff021916908373ffffffffffffffffffffffffffffffffffffffff1602179055508173ffffffffffffffffffffffffffffffffffffffff168173ffffffffffffffffffffffffffffffffffffffff167f8be0079c531659141344cd1fd0a4f28419497f9722a3daafe3b4186f6b6457e060405160405180910390a35050565b828054620001b49062000256565b90600052602060002090601f016020900481019282620001d8576000855562000224565b82601f10620001f357805160ff191683800117855562000224565b8280016001018555821562000224579182015b828111156200022357825182559160200191906001019062000206565b5b50905062000233919062000237565b5090565b5b808211156200025257600081600090555060010162000238565b5090565b600060028204905060018216806200026f57607f821691505b602082108114156200028657620002856200028c565b5b50919050565b7f4e487b7100000000000000000000000000000000000000000000000000000000600052602260045260246000fd5b61301d80620002cb6000396000f3fe608060405234801561001057600080fd5b506004361061010b5760003560e01c8063715018a6116100a2578063b88d4fde11610071578063b88d4fde146102a4578063c87b56dd146102c0578063d0def521146102f0578063e985e9c514610320578063f2fde38b146103505761010b565b8063715018a6146102425780638da5cb5b1461024c57806395d89b411461026a578063a22cb465146102885761010b565b806323b872dd116100de57806323b872dd146101aa57806342842e0e146101c65780636352211e146101e257806370a08231146102125761010b565b806301ffc9a71461011057806306fdde0314610140578063081812fc1461015e578063095ea7b31461018e575b600080fd5b61012a60048036038101906101259190611f7d565b61036c565b60405161013791906123d5565b60405180910390f35b61014861044e565b60405161015591906123f0565b60405180910390f35b61017860048036038101906101739190611fd7565b6104e0565b604051610185919061236e565b60405180910390f35b6101a860048036038101906101a39190611f3d565b610565565b005b6101c460048036038101906101bf9190611dcb565b61067d565b005b6101e060048036038101906101db9190611dcb565b6106dd565b005b6101fc60048036038101906101f79190611fd7565b6106fd565b604051610209919061236e565b60405180910390f35b61022c60048036038101906102279190611d5e565b6107af565b6040516102399190612652565b60405180910390f35b61024a610867565b005b6102546108ef565b604051610261919061236e565b60405180910390f35b610272610919565b60405161027f91906123f0565b60405180910390f35b6102a2600480360381019061029d9190611ea1565b6109ab565b005b6102be60048036038101906102b99190611e1e565b6109c1565b005b6102da60048036038101906102d59190611fd7565b610a23565b6040516102e791906123f0565b60405180910390f35b61030a60048036038101906103059190611ee1565b610b75565b6040516103179190612652565b60405180910390f35b61033a60048036038101906103359190611d8b565b610bad565b60405161034791906123d5565b60405180910390f35b61036a60048036038101906103659190611d5e565b610c41565b005b60007f80ac58cd000000000000000000000000000000000000000000000000000000007bffffffffffffffffffffffffffffffffffffffffffffffffffffffff1916827bffffffffffffffffffffffffffffffffffffffffffffffffffffffff1916148061043757507f5b5e139f000000000000000000000000000000000000000000000000000000007bffffffffffffffffffffffffffffffffffffffffffffffffffffffff1916827bffffffffffffffffffffffffffffffffffffffffffffffffffffffff1916145b80610447575061044682610d39565b5b9050919050565b60606000805461045d906128a8565b80601f0160208091040260200160405190810160405280929190818152602001828054610489906128a8565b80156104d65780601f106104ab576101008083540402835291602001916104d6565b820191906000526020600020905b8154815290600101906020018083116104b957829003601f168201915b5050505050905090565b60006104eb82610da3565b61052a576040517f08c379a0000000000000000000000000000000000000000000000000000000008152600401610521906125b2565b60405180910390fd5b6004600083815260200190815260200160002060009054906101000a900473ffffffffffffffffffffffffffffffffffffffff169050919050565b6000610570826106fd565b90508073ffffffffffffffffffffffffffffffffffffffff168373ffffffffffffffffffffffffffffffffffffffff1614156105e1576040517f08c379a00000000000000000000000000000000000000000000000000000000081526004016105d890612612565b60405180910390fd5b8073ffffffffffffffffffffffffffffffffffffffff16610600610e0f565b73ffffffffffffffffffffffffffffffffffffffff16148061062f575061062e81610629610e0f565b610bad565b5b61066e576040517f08c379a0000000000000000000000000000000000000000000000000000000008152600401610665906124f2565b60405180910390fd5b6106788383610e17565b505050565b61068e610688610e0f565b82610ed0565b6106cd576040517f08c379a00000000000000000000000000000000000000000000000000000000081526004016106c490612632565b60405180910390fd5b6106d8838383610fae565b505050565b6106f8838383604051806020016040528060008152506109c1565b505050565b6000806002600084815260200190815260200160002060009054906101000a900473ffffffffffffffffffffffffffffffffffffffff169050600073ffffffffffffffffffffffffffffffffffffffff168173ffffffffffffffffffffffffffffffffffffffff1614156107a6576040517f08c379a000000000000000000000000000000000000000000000000000000000815260040161079d90612532565b60405180910390fd5b80915050919050565b60008073ffffffffffffffffffffffffffffffffffffffff168273ffffffffffffffffffffffffffffffffffffffff161415610820576040517f08c379a000000000000000000000000000000000000000000000000000000000815260040161081790612512565b60405180910390fd5b600360008373ffffffffffffffffffffffffffffffffffffffff1673ffffffffffffffffffffffffffffffffffffffff168152602001908152602001600020549050919050565b61086f610e0f565b73ffffffffffffffffffffffffffffffffffffffff1661088d6108ef565b73ffffffffffffffffffffffffffffffffffffffff16146108e3576040517f08c379a00000000000000000000000000000000000000000000000000000000081526004016108da906125d2565b60405180910390fd5b6108ed6000611215565b565b6000600760009054906101000a900473ffffffffffffffffffffffffffffffffffffffff16905090565b606060018054610928906128a8565b80601f0160208091040260200160405190810160405280929190818152602001828054610954906128a8565b80156109a15780601f10610976576101008083540402835291602001916109a1565b820191906000526020600020905b81548152906001019060200180831161098457829003601f168201915b5050505050905090565b6109bd6109b6610e0f565b83836112db565b5050565b6109d26109cc610e0f565b83610ed0565b610a11576040517f08c379a0000000000000000000000000000000000000000000000000000000008152600401610a0890612632565b60405180910390fd5b610a1d84848484611448565b50505050565b6060610a2e82610da3565b610a6d576040517f08c379a0000000000000000000000000000000000000000000000000000000008152600401610a6490612592565b60405180910390fd5b6000600660008481526020019081526020016000208054610a8d906128a8565b80601f0160208091040260200160405190810160405280929190818152602001828054610ab9906128a8565b8015610b065780601f10610adb57610100808354040283529160200191610b06565b820191906000526020600020905b815481529060010190602001808311610ae957829003601f168201915b505050505090506000610b176114a4565b9050600081511415610b2d578192505050610b70565b600082511115610b62578082604051602001610b4a92919061234a565b60405160208183030381529060405292505050610b70565b610b6b846114bb565b925050505b919050565b6000610b816008611562565b6000610b8d6008611578565b9050610b998482611586565b610ba381846115a4565b8091505092915050565b6000600560008473ffffffffffffffffffffffffffffffffffffffff1673ffffffffffffffffffffffffffffffffffffffff16815260200190815260200160002060008373ffffffffffffffffffffffffffffffffffffffff1673ffffffffffffffffffffffffffffffffffffffff16815260200190815260200160002060009054906101000a900460ff16905092915050565b610c49610e0f565b73ffffffffffffffffffffffffffffffffffffffff16610c676108ef565b73ffffffffffffffffffffffffffffffffffffffff1614610cbd576040517f08c379a0000000000000000000000000000000000000000000000000000000008152600401610cb4906125d2565b60405180910390fd5b600073ffffffffffffffffffffffffffffffffffffffff168173ffffffffffffffffffffffffffffffffffffffff161415610d2d576040517f08c379a0000000000000000000000000000000000000000000000000000000008152600401610d2490612432565b60405180910390fd5b610d3681611215565b50565b60007f01ffc9a7000000000000000000000000000000000000000000000000000000007bffffffffffffffffffffffffffffffffffffffffffffffffffffffff1916827bffffffffffffffffffffffffffffffffffffffffffffffffffffffff1916149050919050565b60008073ffffffffffffffffffffffffffffffffffffffff166002600084815260200190815260200160002060009054906101000a900473ffffffffffffffffffffffffffffffffffffffff1673ffffffffffffffffffffffffffffffffffffffff1614159050919050565b600033905090565b816004600083815260200190815260200160002060006101000a81548173ffffffffffffffffffffffffffffffffffffffff021916908373ffffffffffffffffffffffffffffffffffffffff160217905550808273ffffffffffffffffffffffffffffffffffffffff16610e8a836106fd565b73ffffffffffffffffffffffffffffffffffffffff167f8c5be1e5ebec7d5bd14f71427d1e84f3dd0314c0f7b2291e5b200ac8c7c3b92560405160405180910390a45050565b6000610edb82610da3565b610f1a576040517f08c379a0000000000000000000000000000000000000000000000000000000008152600401610f11906124d2565b60405180910390fd5b6000610f25836106fd565b90508073ffffffffffffffffffffffffffffffffffffffff168473ffffffffffffffffffffffffffffffffffffffff161480610f675750610f668185610bad565b5b80610fa557508373ffffffffffffffffffffffffffffffffffffffff16610f8d846104e0565b73ffffffffffffffffffffffffffffffffffffffff16145b91505092915050565b8273ffffffffffffffffffffffffffffffffffffffff16610fce826106fd565b73ffffffffffffffffffffffffffffffffffffffff1614611024576040517f08c379a000000000000000000000000000000000000000000000000000000000815260040161101b90612452565b60405180910390fd5b600073ffffffffffffffffffffffffffffffffffffffff168273ffffffffffffffffffffffffffffffffffffffff161415611094576040517f08c379a000000000000000000000000000000000000000000000000000000000815260040161108b90612492565b60405180910390fd5b61109f838383611618565b6110aa600082610e17565b6001600360008573ffffffffffffffffffffffffffffffffffffffff1673ffffffffffffffffffffffffffffffffffffffff16815260200190815260200160002060008282546110fa91906127be565b925050819055506001600360008473ffffffffffffffffffffffffffffffffffffffff1673ffffffffffffffffffffffffffffffffffffffff16815260200190815260200160002060008282546111519190612737565b92505081905550816002600083815260200190815260200160002060006101000a81548173ffffffffffffffffffffffffffffffffffffffff021916908373ffffffffffffffffffffffffffffffffffffffff160217905550808273ffffffffffffffffffffffffffffffffffffffff168473ffffffffffffffffffffffffffffffffffffffff167fddf252ad1be2c89b69c2b068fc378daa952ba7f163c4a11628f55a4df523b3ef60405160405180910390a461121083838361161d565b505050565b6000600760009054906101000a900473ffffffffffffffffffffffffffffffffffffffff16905081600760006101000a81548173ffffffffffffffffffffffffffffffffffffffff021916908373ffffffffffffffffffffffffffffffffffffffff1602179055508173ffffffffffffffffffffffffffffffffffffffff168173ffffffffffffffffffffffffffffffffffffffff167f8be0079c531659141344cd1fd0a4f28419497f9722a3daafe3b4186f6b6457e060405160405180910390a35050565b8173ffffffffffffffffffffffffffffffffffffffff168373ffffffffffffffffffffffffffffffffffffffff16141561134a576040517f08c379a0000000000000000000000000000000000000000000000000000000008152600401611341906124b2565b60405180910390fd5b80600560008573ffffffffffffffffffffffffffffffffffffffff1673ffffffffffffffffffffffffffffffffffffffff16815260200190815260200160002060008473ffffffffffffffffffffffffffffffffffffffff1673ffffffffffffffffffffffffffffffffffffffff16815260200190815260200160002060006101000a81548160ff0219169083151502179055508173ffffffffffffffffffffffffffffffffffffffff168373ffffffffffffffffffffffffffffffffffffffff167f17307eab39ab6107e8899845ad3d59bd9653f200f220920489ca2b5937696c318360405161143b91906123d5565b60405180910390a3505050565b611453848484610fae565b61145f84848484611622565b61149e576040517f08c379a000000000000000000000000000000000000000000000000000000000815260040161149590612412565b60405180910390fd5b50505050565b606060405180602001604052806000815250905090565b60606114c682610da3565b611505576040517f08c379a00000000000000000000000000000000000000000000000000000000081526004016114fc906125f2565b60405180910390fd5b600061150f6114a4565b9050600081511161152f576040518060200160405280600081525061155a565b80611539846117b9565b60405160200161154a92919061234a565b6040516020818303038152906040525b915050919050565b6001816000016000828254019250508190555050565b600081600001549050919050565b6115a082826040518060200160405280600081525061191a565b5050565b6115ad82610da3565b6115ec576040517f08c379a00000000000000000000000000000000000000000000000000000000081526004016115e390612552565b60405180910390fd5b80600660008481526020019081526020016000209080519060200190611613929190611b72565b505050565b505050565b505050565b60006116438473ffffffffffffffffffffffffffffffffffffffff16611975565b156117ac578373ffffffffffffffffffffffffffffffffffffffff1663150b7a0261166c610e0f565b8786866040518563ffffffff1660e01b815260040161168e9493929190612389565b602060405180830381600087803b1580156116a857600080fd5b505af19250505080156116d957506040513d601f19601f820116820180604052508101906116d69190611faa565b60015b61175c573d8060008114611709576040519150601f19603f3d011682016040523d82523d6000602084013e61170e565b606091505b50600081511415611754576040517f08c379a000000000000000000000000000000000000000000000000000000000815260040161174b90612412565b60405180910390fd5b805181602001fd5b63150b7a0260e01b7bffffffffffffffffffffffffffffffffffffffffffffffffffffffff1916817bffffffffffffffffffffffffffffffffffffffffffffffffffffffff1916149150506117b1565b600190505b949350505050565b60606000821415611801576040518060400160405280600181526020017f30000000000000000000000000000000000000000000000000000000000000008152509050611915565b600082905060005b6000821461183357808061181c9061290b565b915050600a8261182c919061278d565b9150611809565b60008167ffffffffffffffff81111561184f5761184e612a41565b5b6040519080825280601f01601f1916602001820160405280156118815781602001600182028036833780820191505090505b5090505b6000851461190e5760018261189a91906127be565b9150600a856118a99190612954565b60306118b59190612737565b60f81b8183815181106118cb576118ca612a12565b5b60200101907effffffffffffffffffffffffffffffffffffffffffffffffffffffffffffff1916908160001a905350600a85611907919061278d565b9450611885565b8093505050505b919050565b6119248383611998565b6119316000848484611622565b611970576040517f08c379a000000000000000000000000000000000000000000000000000000000815260040161196790612412565b60405180910390fd5b505050565b6000808273ffffffffffffffffffffffffffffffffffffffff163b119050919050565b600073ffffffffffffffffffffffffffffffffffffffff168273ffffffffffffffffffffffffffffffffffffffff161415611a08576040517f08c379a00000000000000000000000000000000000000000000000000000000081526004016119ff90612572565b60405180910390fd5b611a1181610da3565b15611a51576040517f08c379a0000000000000000000000000000000000000000000000000000000008152600401611a4890612472565b60405180910390fd5b611a5d60008383611618565b6001600360008473ffffffffffffffffffffffffffffffffffffffff1673ffffffffffffffffffffffffffffffffffffffff1681526020019081526020016000206000828254611aad9190612737565b92505081905550816002600083815260200190815260200160002060006101000a81548173ffffffffffffffffffffffffffffffffffffffff021916908373ffffffffffffffffffffffffffffffffffffffff160217905550808273ffffffffffffffffffffffffffffffffffffffff16600073ffffffffffffffffffffffffffffffffffffffff167fddf252ad1be2c89b69c2b068fc378daa952ba7f163c4a11628f55a4df523b3ef60405160405180910390a4611b6e6000838361161d565b5050565b828054611b7e906128a8565b90600052602060002090601f016020900481019282611ba05760008555611be7565b82601f10611bb957805160ff1916838001178555611be7565b82800160010185558215611be7579182015b82811115611be6578251825591602001919060010190611bcb565b5b509050611bf49190611bf8565b5090565b5b80821115611c11576000816000905550600101611bf9565b5090565b6000611c28611c2384612692565b61266d565b905082815260208101848484011115611c4457611c43612a75565b5b611c4f848285612866565b509392505050565b6000611c6a611c65846126c3565b61266d565b905082815260208101848484011115611c8657611c85612a75565b5b611c91848285612866565b509392505050565b600081359050611ca881612f8b565b92915050565b600081359050611cbd81612fa2565b92915050565b600081359050611cd281612fb9565b92915050565b600081519050611ce781612fb9565b92915050565b600082601f830112611d0257611d01612a70565b5b8135611d12848260208601611c15565b91505092915050565b600082601f830112611d3057611d2f612a70565b5b8135611d40848260208601611c57565b91505092915050565b600081359050611d5881612fd0565b92915050565b600060208284031215611d7457611d73612a7f565b5b6000611d8284828501611c99565b91505092915050565b60008060408385031215611da257611da1612a7f565b5b6000611db085828601611c99565b9250506020611dc185828601611c99565b9150509250929050565b600080600060608486031215611de457611de3612a7f565b5b6000611df286828701611c99565b9350506020611e0386828701611c99565b9250506040611e1486828701611d49565b9150509250925092565b60008060008060808587031215611e3857611e37612a7f565b5b6000611e4687828801611c99565b9450506020611e5787828801611c99565b9350506040611e6887828801611d49565b925050606085013567ffffffffffffffff811115611e8957611e88612a7a565b5b611e9587828801611ced565b91505092959194509250565b60008060408385031215611eb857611eb7612a7f565b5b6000611ec685828601611c99565b9250506020611ed785828601611cae565b9150509250929050565b60008060408385031215611ef857611ef7612a7f565b5b6000611f0685828601611c99565b925050602083013567ffffffffffffffff811115611f2757611f26612a7a565b5b611f3385828601611d1b565b9150509250929050565b60008060408385031215611f5457611f53612a7f565b5b6000611f6285828601611c99565b9250506020611f7385828601611d49565b9150509250929050565b600060208284031215611f9357611f92612a7f565b5b6000611fa184828501611cc3565b91505092915050565b600060208284031215611fc057611fbf612a7f565b5b6000611fce84828501611cd8565b91505092915050565b600060208284031215611fed57611fec612a7f565b5b6000611ffb84828501611d49565b91505092915050565b61200d816127f2565b82525050565b61201c81612804565b82525050565b600061202d826126f4565b612037818561270a565b9350612047818560208601612875565b61205081612a84565b840191505092915050565b6000612066826126ff565b612070818561271b565b9350612080818560208601612875565b61208981612a84565b840191505092915050565b600061209f826126ff565b6120a9818561272c565b93506120b9818560208601612875565b80840191505092915050565b60006120d260328361271b565b91506120dd82612a95565b604082019050919050565b60006120f560268361271b565b915061210082612ae4565b604082019050919050565b600061211860258361271b565b915061212382612b33565b604082019050919050565b600061213b601c8361271b565b915061214682612b82565b602082019050919050565b600061215e60248361271b565b915061216982612bab565b604082019050919050565b600061218160198361271b565b915061218c82612bfa565b602082019050919050565b60006121a4602c8361271b565b91506121af82612c23565b604082019050919050565b60006121c760388361271b565b91506121d282612c72565b604082019050919050565b60006121ea602a8361271b565b91506121f582612cc1565b604082019050919050565b600061220d60298361271b565b915061221882612d10565b604082019050919050565b6000612230602e8361271b565b915061223b82612d5f565b604082019050919050565b600061225360208361271b565b915061225e82612dae565b602082019050919050565b600061227660318361271b565b915061228182612dd7565b604082019050919050565b6000612299602c8361271b565b91506122a482612e26565b604082019050919050565b60006122bc60208361271b565b91506122c782612e75565b602082019050919050565b60006122df602f8361271b565b91506122ea82612e9e565b604082019050919050565b600061230260218361271b565b915061230d82612eed565b604082019050919050565b600061232560318361271b565b915061233082612f3c565b604082019050919050565b6123448161285c565b82525050565b60006123568285612094565b91506123628284612094565b91508190509392505050565b60006020820190506123836000830184612004565b92915050565b600060808201905061239e6000830187612004565b6123ab6020830186612004565b6123b8604083018561233b565b81810360608301526123ca8184612022565b905095945050505050565b60006020820190506123ea6000830184612013565b92915050565b6000602082019050818103600083015261240a818461205b565b905092915050565b6000602082019050818103600083015261242b816120c5565b9050919050565b6000602082019050818103600083015261244b816120e8565b9050919050565b6000602082019050818103600083015261246b8161210b565b9050919050565b6000602082019050818103600083015261248b8161212e565b9050919050565b600060208201905081810360008301526124ab81612151565b9050919050565b600060208201905081810360008301526124cb81612174565b9050919050565b600060208201905081810360008301526124eb81612197565b9050919050565b6000602082019050818103600083015261250b816121ba565b9050919050565b6000602082019050818103600083015261252b816121dd565b9050919050565b6000602082019050818103600083015261254b81612200565b9050919050565b6000602082019050818103600083015261256b81612223565b9050919050565b6000602082019050818103600083015261258b81612246565b9050919050565b600060208201905081810360008301526125ab81612269565b9050919050565b600060208201905081810360008301526125cb8161228c565b9050919050565b600060208201905081810360008301526125eb816122af565b9050919050565b6000602082019050818103600083015261260b816122d2565b9050919050565b6000602082019050818103600083015261262b816122f5565b9050919050565b6000602082019050818103600083015261264b81612318565b9050919050565b6000602082019050612667600083018461233b565b92915050565b6000612677612688565b905061268382826128da565b919050565b6000604051905090565b600067ffffffffffffffff8211156126ad576126ac612a41565b5b6126b682612a84565b9050602081019050919050565b600067ffffffffffffffff8211156126de576126dd612a41565b5b6126e782612a84565b9050602081019050919050565b600081519050919050565b600081519050919050565b600082825260208201905092915050565b600082825260208201905092915050565b600081905092915050565b60006127428261285c565b915061274d8361285c565b9250827fffffffffffffffffffffffffffffffffffffffffffffffffffffffffffffffff0382111561278257612781612985565b5b828201905092915050565b60006127988261285c565b91506127a38361285c565b9250826127b3576127b26129b4565b5b828204905092915050565b60006127c98261285c565b91506127d48361285c565b9250828210156127e7576127e6612985565b5b828203905092915050565b60006127fd8261283c565b9050919050565b60008115159050919050565b60007fffffffff0000000000000000000000000000000000000000000000000000000082169050919050565b600073ffffffffffffffffffffffffffffffffffffffff82169050919050565b6000819050919050565b82818337600083830152505050565b60005b83811015612893578082015181840152602081019050612878565b838111156128a2576000848401525b50505050565b600060028204905060018216806128c057607f821691505b602082108114156128d4576128d36129e3565b5b50919050565b6128e382612a84565b810181811067ffffffffffffffff8211171561290257612901612a41565b5b80604052505050565b60006129168261285c565b91507fffffffffffffffffffffffffffffffffffffffffffffffffffffffffffffffff82141561294957612948612985565b5b600182019050919050565b600061295f8261285c565b915061296a8361285c565b92508261297a576129796129b4565b5b828206905092915050565b7f4e487b7100000000000000000000000000000000000000000000000000000000600052601160045260246000fd5b7f4e487b7100000000000000000000000000000000000000000000000000000000600052601260045260246000fd5b7f4e487b7100000000000000000000000000000000000000000000000000000000600052602260045260246000fd5b7f4e487b7100000000000000000000000000000000000000000000000000000000600052603260045260246000fd5b7f4e487b7100000000000000000000000000000000000000000000000000000000600052604160045260246000fd5b600080fd5b600080fd5b600080fd5b600080fd5b6000601f19601f8301169050919050565b7f4552433732313a207472616e7366657220746f206e6f6e20455243373231526560008201527f63656976657220696d706c656d656e7465720000000000000000000000000000602082015250565b7f4f776e61626c653a206e6577206f776e657220697320746865207a65726f206160008201527f6464726573730000000000000000000000000000000000000000000000000000602082015250565b7f4552433732313a207472616e736665722066726f6d20696e636f72726563742060008201527f6f776e6572000000000000000000000000000000000000000000000000000000602082015250565b7f4552433732313a20746f6b656e20616c7265616479206d696e74656400000000600082015250565b7f4552433732313a207472616e7366657220746f20746865207a65726f2061646460008201527f7265737300000000000000000000000000000000000000000000000000000000602082015250565b7f4552433732313a20617070726f766520746f2063616c6c657200000000000000600082015250565b7f4552433732313a206f70657261746f7220717565727920666f72206e6f6e657860008201527f697374656e7420746f6b656e0000000000000000000000000000000000000000602082015250565b7f4552433732313a20617070726f76652063616c6c6572206973206e6f74206f7760008201527f6e6572206e6f7220617070726f76656420666f7220616c6c0000000000000000602082015250565b7f4552433732313a2062616c616e636520717565727920666f7220746865207a6560008201527f726f206164647265737300000000000000000000000000000000000000000000602082015250565b7f4552433732313a206f776e657220717565727920666f72206e6f6e657869737460008201527f656e7420746f6b656e0000000000000000000000000000000000000000000000602082015250565b7f45524337323155524953746f726167653a2055524920736574206f66206e6f6e60008201527f6578697374656e7420746f6b656e000000000000000000000000000000000000602082015250565b7f4552433732313a206d696e7420746f20746865207a65726f2061646472657373600082015250565b7f45524337323155524953746f726167653a2055524920717565727920666f722060008201527f6e6f6e6578697374656e7420746f6b656e000000000000000000000000000000602082015250565b7f4552433732313a20617070726f76656420717565727920666f72206e6f6e657860008201527f697374656e7420746f6b656e0000000000000000000000000000000000000000602082015250565b7f4f776e61626c653a2063616c6c6572206973206e6f7420746865206f776e6572600082015250565b7f4552433732314d657461646174613a2055524920717565727920666f72206e6f60008201527f6e6578697374656e7420746f6b656e0000000000000000000000000000000000602082015250565b7f4552433732313a20617070726f76616c20746f2063757272656e74206f776e6560008201527f7200000000000000000000000000000000000000000000000000000000000000602082015250565b7f4552433732313a207472616e736665722063616c6c6572206973206e6f74206f60008201527f776e6572206e6f7220617070726f766564000000000000000000000000000000602082015250565b612f94816127f2565b8114612f9f57600080fd5b50565b612fab81612804565b8114612fb657600080fd5b50565b612fc281612810565b8114612fcd57600080fd5b50565b612fd98161285c565b8114612fe457600080fd5b5056fea2646970667358221220ba70addd9ec5d253a16877894d747c6b4014cf54f5ae858756e08f4e421e011464736f6c63430008060033",
  "linkReferences": {},
  "deployedLinkReferences": {}
}